{
  "_format": "hh-sol-artifact-1",
  "contractName": "HOPEPartyDrop",
  "sourceName": "contracts/LHSPartyDrop.sol",
  "abi": [
    {
      "inputs": [],
      "stateMutability": "nonpayable",
      "type": "constructor"
    },
    {
      "anonymous": false,
      "inputs": [
        {
          "indexed": true,
          "internalType": "address",
          "name": "previousOwner",
          "type": "address"
        },
        {
          "indexed": true,
          "internalType": "address",
          "name": "newOwner",
          "type": "address"
        }
      ],
      "name": "OwnershipTransferred",
      "type": "event"
    },
    {
      "inputs": [],
      "name": "claimAmount",
      "outputs": [
        {
          "internalType": "uint256",
          "name": "",
          "type": "uint256"
        }
      ],
      "stateMutability": "view",
      "type": "function"
    },
    {
      "inputs": [],
      "name": "harvest",
      "outputs": [],
      "stateMutability": "nonpayable",
      "type": "function"
    },
    {
      "inputs": [
        {
          "internalType": "uint256",
          "name": "id",
          "type": "uint256"
        }
      ],
      "name": "harvestWL1155",
      "outputs": [],
      "stateMutability": "nonpayable",
      "type": "function"
    },
    {
      "inputs": [
        {
          "internalType": "address",
          "name": "",
          "type": "address"
        }
      ],
      "name": "hasClaimed",
      "outputs": [
        {
          "internalType": "bool",
          "name": "",
          "type": "bool"
        }
      ],
      "stateMutability": "view",
      "type": "function"
    },
    {
      "inputs": [
        {
          "internalType": "address",
          "name": "account",
          "type": "address"
        }
      ],
      "name": "isWhitelisted",
      "outputs": [
        {
          "internalType": "bool",
          "name": "",
          "type": "bool"
        }
      ],
      "stateMutability": "view",
      "type": "function"
    },
    {
      "inputs": [
        {
          "internalType": "address",
          "name": "account",
          "type": "address"
        },
        {
          "internalType": "uint256",
          "name": "id",
          "type": "uint256"
        }
      ],
      "name": "isWhitelisted1155",
      "outputs": [
        {
          "internalType": "bool",
          "name": "",
          "type": "bool"
        }
      ],
      "stateMutability": "view",
      "type": "function"
    },
    {
      "inputs": [],
      "name": "owner",
      "outputs": [
        {
          "internalType": "address",
          "name": "",
          "type": "address"
        }
      ],
      "stateMutability": "view",
      "type": "function"
    },
    {
      "inputs": [],
      "name": "renounceOwnership",
      "outputs": [],
      "stateMutability": "nonpayable",
      "type": "function"
    },
    {
      "inputs": [
        {
          "internalType": "uint256",
          "name": "amount",
          "type": "uint256"
        }
      ],
      "name": "setClaimAmount",
      "outputs": [],
      "stateMutability": "nonpayable",
      "type": "function"
    },
    {
      "inputs": [
        {
          "internalType": "address[]",
          "name": "list",
          "type": "address[]"
        }
      ],
      "name": "setWL1155",
      "outputs": [],
      "stateMutability": "nonpayable",
      "type": "function"
    },
    {
      "inputs": [
        {
          "internalType": "address[]",
          "name": "list",
          "type": "address[]"
        }
      ],
      "name": "setWL721",
      "outputs": [],
      "stateMutability": "nonpayable",
      "type": "function"
    },
    {
      "inputs": [],
      "name": "token",
      "outputs": [
        {
          "internalType": "contract IERC20Recyclable",
          "name": "",
          "type": "address"
        }
      ],
      "stateMutability": "view",
      "type": "function"
    },
    {
      "inputs": [
        {
          "internalType": "address",
          "name": "newOwner",
          "type": "address"
        }
      ],
      "name": "transferOwnership",
      "outputs": [],
      "stateMutability": "nonpayable",
      "type": "function"
    }
  ],
  "bytecode": "0x60a06040526005805460ff1916905534801561001a57600080fd5b50732d2c0a72eafdb8840da4f7b604e05dd64feb86c16816c4abbebea010000061004a610045610065565b610069565b60609190911b6001600160601b0319166080526001556100b9565b3390565b600080546001600160a01b038381166001600160a01b0319831681178455604051919092169283917f8be0079c531659141344cd1fd0a4f28419497f9722a3daafe3b4186f6b6457e09190a35050565b60805160601c610de86100e56000396000818161029001528181610521015261092d0152610de86000f3fe608060405234801561001057600080fd5b50600436106100cf5760003560e01c80638da5cb5b1161008c578063b1c7ef0c11610066578063b1c7ef0c14610185578063c102b78914610198578063f2fde38b146101ab578063fc0c546a146101be576100cf565b80638da5cb5b1461014a57806398279a7a1461015f5780639b952a0014610172576100cf565b806319c3e925146100d45780633af32abf146100e95780634641257d14610112578063715018a61461011a57806373b2e80e14610122578063830953ab14610135575b600080fd5b6100e76100e2366004610b5f565b6101c6565b005b6100fc6100f7366004610a34565b610379565b6040516101099190610bbc565b60405180910390f35b6100e7610466565b6100e7610609565b6100fc610130366004610a34565b610654565b61013d610669565b6040516101099190610d67565b61015261066f565b6040516101099190610b8f565b6100fc61016d366004610a55565b61067e565b6100e7610180366004610a7e565b61076c565b6100e7610193366004610b5f565b6107e3565b6100e76101a6366004610a7e565b610847565b6100e76101b9366004610a34565b6108ba565b61015261092b565b60055460ff16156101d657600080fd5b6005805460ff19166001179055326101ec61094f565b6001600160a01b03161461021b5760405162461bcd60e51b815260040161021290610cbd565b60405180910390fd5b61022c61022661094f565b8261067e565b6102485760405162461bcd60e51b815260040161021290610bfe565b6002600061025461094f565b6001600160a01b0316815260208101919091526040016000205460ff161561028e5760405162461bcd60e51b815260040161021290610d23565b7f00000000000000000000000000000000000000000000000000000000000000006001600160a01b03166340c10f196102c561094f565b6001546040518363ffffffff1660e01b81526004016102e5929190610ba3565b602060405180830381600087803b1580156102ff57600080fd5b505af1158015610313573d6000803e3d6000fd5b505050506040513d601f19601f820116820180604052508101906103379190610b3f565b5060016002600061034661094f565b6001600160a01b031681526020810191909152604001600020805491151560ff1992831617905560058054909116905550565b6000805b60035460ff8216101561045b57600060038260ff16815481106103b057634e487b7160e01b600052603260045260246000fd5b6000918252602090912001546040516370a0823160e01b81526001600160a01b03909116906370a08231906103e9908790600401610b8f565b60206040518083038186803b15801561040157600080fd5b505afa158015610415573d6000803e3d6000fd5b505050506040513d601f19601f820116820180604052508101906104399190610b77565b1115610449576001915050610461565b8061045381610d70565b91505061037d565b60009150505b919050565b60055460ff161561047657600080fd5b6005805460ff191660011790553261048c61094f565b6001600160a01b0316146104b25760405162461bcd60e51b815260040161021290610cbd565b6104bd6100f761094f565b6104d95760405162461bcd60e51b815260040161021290610bfe565b600260006104e561094f565b6001600160a01b0316815260208101919091526040016000205460ff161561051f5760405162461bcd60e51b815260040161021290610d23565b7f00000000000000000000000000000000000000000000000000000000000000006001600160a01b03166340c10f1961055661094f565b6001546040518363ffffffff1660e01b8152600401610576929190610ba3565b602060405180830381600087803b15801561059057600080fd5b505af11580156105a4573d6000803e3d6000fd5b505050506040513d601f19601f820116820180604052508101906105c89190610b3f565b506001600260006105d761094f565b6001600160a01b031681526020810191909152604001600020805491151560ff19928316179055600580549091169055565b61061161094f565b6001600160a01b031661062261066f565b6001600160a01b0316146106485760405162461bcd60e51b815260040161021290610c88565b6106526000610953565b565b60026020526000908152604090205460ff1681565b60015481565b6000546001600160a01b031690565b6000805b60045460ff8216101561076057600060048260ff16815481106106b557634e487b7160e01b600052603260045260246000fd5b600091825260209091200154604051627eeac760e11b81526001600160a01b039091169062fdd58e906106ee9088908890600401610ba3565b60206040518083038186803b15801561070657600080fd5b505afa15801561071a573d6000803e3d6000fd5b505050506040513d601f19601f8201168201806040525081019061073e9190610b77565b111561074e576001915050610766565b8061075881610d70565b915050610682565b60009150505b92915050565b61077461094f565b6001600160a01b031661078561066f565b6001600160a01b0316146107ab5760405162461bcd60e51b815260040161021290610c88565b60008151116107cc5760405162461bcd60e51b815260040161021290610cec565b80516107df9060049060208401906109a3565b5050565b6107eb61094f565b6001600160a01b03166107fc61066f565b6001600160a01b0316146108225760405162461bcd60e51b815260040161021290610c88565b600081116108425760405162461bcd60e51b815260040161021290610bc7565b600155565b61084f61094f565b6001600160a01b031661086061066f565b6001600160a01b0316146108865760405162461bcd60e51b815260040161021290610c88565b60008151116108a75760405162461bcd60e51b815260040161021290610cec565b80516107df9060039060208401906109a3565b6108c261094f565b6001600160a01b03166108d361066f565b6001600160a01b0316146108f95760405162461bcd60e51b815260040161021290610c88565b6001600160a01b03811661091f5760405162461bcd60e51b815260040161021290610c42565b61092881610953565b50565b7f000000000000000000000000000000000000000000000000000000000000000081565b3390565b600080546001600160a01b038381166001600160a01b0319831681178455604051919092169283917f8be0079c531659141344cd1fd0a4f28419497f9722a3daafe3b4186f6b6457e09190a35050565b8280548282559060005260206000209081019282156109f8579160200282015b828111156109f857825182546001600160a01b0319166001600160a01b039091161782556020909201916001909101906109c3565b50610a04929150610a08565b5090565b5b80821115610a045760008155600101610a09565b80356001600160a01b038116811461046157600080fd5b600060208284031215610a45578081fd5b610a4e82610a1d565b9392505050565b60008060408385031215610a67578081fd5b610a7083610a1d565b946020939093013593505050565b60006020808385031215610a90578182fd5b823567ffffffffffffffff80821115610aa7578384fd5b818501915085601f830112610aba578384fd5b813581811115610acc57610acc610d9c565b83810260405185828201018181108582111715610aeb57610aeb610d9c565b604052828152858101935084860182860187018a1015610b09578788fd5b8795505b83861015610b3257610b1e81610a1d565b855260019590950194938601938601610b0d565b5098975050505050505050565b600060208284031215610b50578081fd5b81518015158114610a4e578182fd5b600060208284031215610b70578081fd5b5035919050565b600060208284031215610b88578081fd5b5051919050565b6001600160a01b0391909116815260200190565b6001600160a01b03929092168252602082015260400190565b901515815260200190565b6020808252601b908201527f50617274792044726f703a20496e76616c696420616d6f756e742e0000000000604082015260600190565b60208082526024908201527f50617274792044726f703a204163636f756e74206e6f742077686974656c69736040820152633a32b21760e11b606082015260800190565b60208082526026908201527f4f776e61626c653a206e6577206f776e657220697320746865207a65726f206160408201526564647265737360d01b606082015260800190565b6020808252818101527f4f776e61626c653a2063616c6c6572206973206e6f7420746865206f776e6572604082015260600190565b6020808252601590820152742830b93a3c90223937b81d1022a7a09037b7363c9760591b604082015260600190565b60208082526019908201527f50617274792044726f703a20496e76616c6964206c6973742e00000000000000604082015260600190565b60208082526024908201527f50617274792044726f703a204163636f756e7420616c726561647920636c616960408201526336b2b21760e11b606082015260800190565b90815260200190565b600060ff821660ff811415610d9357634e487b7160e01b82526011600452602482fd5b60010192915050565b634e487b7160e01b600052604160045260246000fdfea2646970667358221220e20ba14f4e62ac6b912484869b8eb9b0161773d79f58dd61e8dbb728c5e7373364736f6c63430008000033",
  "linkReferences": {},
  "deployedLinkReferences": {}
}